{
  "_format": "hh-sol-artifact-1",
  "contractName": "Transactions",
  "sourceName": "contracts/Transactions.sol",
  "abi": [
    {
      "anonymous": false,
      "inputs": [
        {
          "indexed": false,
          "internalType": "address",
          "name": "from",
          "type": "address"
        },
        {
          "indexed": false,
          "internalType": "address",
          "name": "to",
          "type": "address"
        },
        {
          "indexed": false,
          "internalType": "uint256",
          "name": "amount",
          "type": "uint256"
        },
        {
          "indexed": false,
          "internalType": "string",
          "name": "gifUrl",
          "type": "string"
        },
        {
          "indexed": false,
          "internalType": "uint256",
          "name": "timestamp",
          "type": "uint256"
        },
        {
          "indexed": false,
          "internalType": "uint256",
          "name": "votes",
          "type": "uint256"
        }
      ],
      "name": "Transfer",
      "type": "event"
    },
    {
      "inputs": [
        {
          "internalType": "address payable",
          "name": "to",
          "type": "address"
        },
        {
          "internalType": "uint256",
          "name": "amount",
          "type": "uint256"
        },
        {
          "internalType": "string",
          "name": "gifUrl",
          "type": "string"
        },
        {
          "internalType": "uint256",
          "name": "votes",
          "type": "uint256"
        }
      ],
      "name": "addToBlockchain",
      "outputs": [],
      "stateMutability": "nonpayable",
      "type": "function"
    },
    {
      "inputs": [],
      "name": "getAllTransactions",
      "outputs": [
        {
          "components": [
            {
              "internalType": "address",
              "name": "from",
              "type": "address"
            },
            {
              "internalType": "address",
              "name": "to",
              "type": "address"
            },
            {
              "internalType": "uint256",
              "name": "amount",
              "type": "uint256"
            },
            {
              "internalType": "string",
              "name": "gifUrl",
              "type": "string"
            },
            {
              "internalType": "uint256",
              "name": "timestamp",
              "type": "uint256"
            },
            {
              "internalType": "uint256",
              "name": "votes",
              "type": "uint256"
            }
          ],
          "internalType": "struct Transactions.TransferStruct[]",
          "name": "",
          "type": "tuple[]"
        }
      ],
      "stateMutability": "view",
      "type": "function"
    },
    {
      "inputs": [],
      "name": "getTransactionsCount",
      "outputs": [
        {
          "internalType": "uint256",
          "name": "",
          "type": "uint256"
        }
      ],
      "stateMutability": "view",
      "type": "function"
    }
  ],
  "bytecode": "0x608060405234801561001057600080fd5b50610b4c806100206000396000f3fe608060405234801561001057600080fd5b50600436106100415760003560e01c806327506f5314610046578063486aa1f114610064578063578cb8f914610080575b600080fd5b61004e61009e565b60405161005b91906107f8565b60405180910390f35b61007e60048036038101906100799190610546565b610259565b005b610088610408565b604051610095919061081a565b60405180910390f35b60606001805480602002602001604051908101604052809291908181526020016000905b8282101561025057838290600052602060002090600602016040518060c00160405290816000820160009054906101000a900473ffffffffffffffffffffffffffffffffffffffff1673ffffffffffffffffffffffffffffffffffffffff1673ffffffffffffffffffffffffffffffffffffffff1681526020016001820160009054906101000a900473ffffffffffffffffffffffffffffffffffffffff1673ffffffffffffffffffffffffffffffffffffffff1673ffffffffffffffffffffffffffffffffffffffff168152602001600282015481526020016003820180546101ab90610a18565b80601f01602080910402602001604051908101604052809291908181526020018280546101d790610a18565b80156102245780601f106101f957610100808354040283529160200191610224565b820191906000526020600020905b81548152906001019060200180831161020757829003601f168201915b5050505050815260200160048201548152602001600582015481525050815260200190600101906100c2565b50505050905090565b600160008082825461026b91906108fc565b9250508190555060016040518060c001604052803373ffffffffffffffffffffffffffffffffffffffff1681526020018673ffffffffffffffffffffffffffffffffffffffff16815260200185815260200184815260200142815260200183815250908060018154018082558091505060019003906000526020600020906006020160009091909190915060008201518160000160006101000a81548173ffffffffffffffffffffffffffffffffffffffff021916908373ffffffffffffffffffffffffffffffffffffffff16021790555060208201518160010160006101000a81548173ffffffffffffffffffffffffffffffffffffffff021916908373ffffffffffffffffffffffffffffffffffffffff1602179055506040820151816002015560608201518160030190805190602001906103aa929190610411565b506080820151816004015560a0820151816005015550507ffe9fdb23f13df9991e31dc1cc74c51c307082181e06be8d98f18c2354fc954f13385858542866040516103fa96959493929190610790565b60405180910390a150505050565b60008054905090565b82805461041d90610a18565b90600052602060002090601f01602090048101928261043f5760008555610486565b82601f1061045857805160ff1916838001178555610486565b82800160010185558215610486579182015b8281111561048557825182559160200191906001019061046a565b5b5090506104939190610497565b5090565b5b808211156104b0576000816000905550600101610498565b5090565b60006104c76104c284610866565b610835565b9050828152602081018484840111156104df57600080fd5b6104ea8482856109d6565b509392505050565b60008135905061050181610ae8565b92915050565b600082601f83011261051857600080fd5b81356105288482602086016104b4565b91505092915050565b60008135905061054081610aff565b92915050565b6000806000806080858703121561055c57600080fd5b600061056a878288016104f2565b945050602061057b87828801610531565b935050604085013567ffffffffffffffff81111561059857600080fd5b6105a487828801610507565b92505060606105b587828801610531565b91505092959194509250565b60006105cd83836106e9565b905092915050565b6105de816109a0565b82525050565b6105ed81610952565b82525050565b6105fc81610952565b82525050565b600061060d826108a6565b61061781856108c9565b93508360208202850161062985610896565b8060005b85811015610665578484038952815161064685826105c1565b9450610651836108bc565b925060208a0199505060018101905061062d565b50829750879550505050505092915050565b6000610682826108b1565b61068c81856108da565b935061069c8185602086016109e5565b6106a581610ad7565b840191505092915050565b60006106bb826108b1565b6106c581856108eb565b93506106d58185602086016109e5565b6106de81610ad7565b840191505092915050565b600060c08301600083015161070160008601826105e4565b50602083015161071460208601826105e4565b5060408301516107276040860182610772565b506060830151848203606086015261073f8282610677565b91505060808301516107546080860182610772565b5060a083015161076760a0860182610772565b508091505092915050565b61077b81610996565b82525050565b61078a81610996565b82525050565b600060c0820190506107a560008301896105f3565b6107b260208301886105d5565b6107bf6040830187610781565b81810360608301526107d181866106b0565b90506107e06080830185610781565b6107ed60a0830184610781565b979650505050505050565b600060208201905081810360008301526108128184610602565b905092915050565b600060208201905061082f6000830184610781565b92915050565b6000604051905081810181811067ffffffffffffffff8211171561085c5761085b610aa8565b5b8060405250919050565b600067ffffffffffffffff82111561088157610880610aa8565b5b601f19601f8301169050602081019050919050565b6000819050602082019050919050565b600081519050919050565b600081519050919050565b6000602082019050919050565b600082825260208201905092915050565b600082825260208201905092915050565b600082825260208201905092915050565b600061090782610996565b915061091283610996565b9250827fffffffffffffffffffffffffffffffffffffffffffffffffffffffffffffffff0382111561094757610946610a4a565b5b828201905092915050565b600061095d82610976565b9050919050565b600061096f82610976565b9050919050565b600073ffffffffffffffffffffffffffffffffffffffff82169050919050565b6000819050919050565b60006109ab826109b2565b9050919050565b60006109bd826109c4565b9050919050565b60006109cf82610976565b9050919050565b82818337600083830152505050565b60005b83811015610a035780820151818401526020810190506109e8565b83811115610a12576000848401525b50505050565b60006002820490506001821680610a3057607f821691505b60208210811415610a4457610a43610a79565b5b50919050565b7f4e487b7100000000000000000000000000000000000000000000000000000000600052601160045260246000fd5b7f4e487b7100000000000000000000000000000000000000000000000000000000600052602260045260246000fd5b7f4e487b7100000000000000000000000000000000000000000000000000000000600052604160045260246000fd5b6000601f19601f8301169050919050565b610af181610964565b8114610afc57600080fd5b50565b610b0881610996565b8114610b1357600080fd5b5056fea264697066735822122016930d45b50d4c26a659c81e4a0cd8da786ad38a324010d1c72da5825bd33b6864736f6c63430008000033",
  "linkReferences": {},
  "deployedLinkReferences": {}
}